:020000040800F2
:1000000008090020D50200088D3700084136000895
:1000100089370008D31C0008293E000800000000B2
:10002000000000000000000000000000E3390008AC
:10003000751D000800000000E1390008E5390008DE
:10004000EF020008EF020008EF020008EF020008CC
:10005000EF020008EF020008EF020008EF020008BC
:10006000EF020008EF020008EF020008EF020008AC
:10007000EF020008EF020008EF020008EF0200089C
:10008000EF020008EF020008EF020008EF0200088C
:10009000D91C0008EF020008EF020008EF02000878
:1000A000EF020008EF020008EF020008EF0200086C
:1000B000EF020008EF020008EF020008EF0200085C
:1000C000EF020008EF020008EF020008EF0200084C
:1000D000EF020008EF020008EF020008EF0200083C
:1000E000EF020008EF020008EF020008EF0200082C
:1000F000EF020008EF020008EF020008EF0200081C
:10010000EF020008EF020008EF020008EF0200080B
:10011000EF020008EF020008EF020008EF020008FB
:10012000EF020008EF020008EF020008EF020008EB
:10013000EF020008EF020008EF020008EF020008DB
:10014000E91C0008EF020008EF020008EF020008B7
:10015000EF020008EF020008EF020008EF020008BB
:10016000EF020008EF020008EF020008EF020008AB
:10017000EF020008EF020008EF0200080000000094
:10018000EF020008EF02000800F002F800F092F819
:100190000AA090E8000C82448344AAF10107DA45E2
:1001A00001D100F087F8AFF2090EBAE80F0013F0A2
:1001B000010F18BFFB1A43F001031847E840000085
:1001C00008410000103A24BF78C878C1FAD8520715
:1001D00024BF30C830C144BF04680C6070470000C1
:1001E0000023002400250026103A28BF78C1FBD840
:1001F000520728BF30C148BF0B6070476E2900F01E
:10020000DB81702900F01D83662903F0BD87652915
:1002100003F0BA87672903F0B787612903F0B6872F
:1002200003681B0A28BF41F08001692900F088811A
:10023000642900F08581752900F082816F2900F022
:10024000AA82782900F0E982E92900F04582E429B0
:1002500000F04282F52900F03F82EF2900F0A782EA
:10026000F82900F0E8820368DB0928BF41F080012B
:10027000632900F0EB87732900F0F087E32900F091
:10028000FB87F32901F00080002070471FB503F0C1
:1002900076FF01F04BF804000020002103F0E2FE9D
:1002A000401C60600020002103F0C6FEE0601FBD1E
:1002B00010B510BD01F00CF81146FFF7E7FF03F091
:1002C0002BFE01F0E9F803B4FFF7F2FF03BC01F0E5
:1002D00031F900000948804709480047FEE7FEE77A
:1002E000FEE7FEE7FEE7FEE7FEE7FEE7FEE7FEE7E6
:1002F00004480549054A064B70470000A13A00082A
:1003000089010008080300200809002008050020D2
:100310000805002053EA020C00F069802DE9F04B3B
:100320004FF00006002B1FBFB3FA83F503FA05F464
:1003300024FA05F65E4012BF1643B2FA82F502FABD
:1003400005F4C5F120051EBF22FA05FC44EA0C04A1
:10035000203556EA044C4FEA144418BF641C4FF091
:1003600000084FF00009904271EB030C39D30029CB
:1003700019BFB1FA81F701FA07F6B0FA80F700FA6F
:1003800007F6C7F120071EBF20FA07FC46EA0C0655
:100390002037B6FBF4FCA7EB0507103F07F01F0B57
:1003A000CBF120060CFA0BFB2CFA06F644BFB34641
:1003B0000026202FA4BF5E464FF0000B5BEA060C20
:1003C00008BF4FF0010B19EB0B09ABFB027C48EBAC
:1003D0000608C01B06FB02CC0BFB03CC71EB0C0127
:1003E000C1E70B46024641464846BDE8F08B13B5CF
:1003F0004FF000004FF00001AFF30080BDE81C405B
:10040000704700001CB50C46064B7B4469460090C3
:10041000204600F0EAF804460020694600F0F8F8AB
:1004200020461CBD030200004FF0000200B5134639
:1004300094469646203922BFA0E80C50A0E80C5004
:10044000B1F12001BFF4F7AF090728BFA0E80C50B5
:1004500048BF0CC05DF804EB890028BF40F8042BAE
:1004600008BF704748BF20F8022B11F0804F18BF1B
:1004700000F8012B704770477047704770B504460D
:1004800085690068C10601D5302600E02026C00736
:1004900007D070BDD4E9012130469047206A401C46
:1004A00020626D1EF6D570BD70B504468569007872
:1004B000C00707D170BDD4E9012120209047206AF0
:1004C000401C20626D1EF6D570BD09684A0501D535
:1004D00040B27047C905FCD500B2704709684A05AB
:1004E00001D5C0B27047C905FCD580B2704770B560
:1004F0000C460546012A05D02878800600D5EA6911
:10050000002302E0012305E05B1C934202D2E05C81
:100510000028F9D1A869E618C01AA861286A184409
:1005200028622846FFF7AAFF04E0D5E9012114F864
:10053000010B9047B442F8D32846FFF7B5FF70BDD2
:100540002DE9F0410646002410687529314616A5AC
:1005500010D0FFF7BAFF002802DA404213A507E0E7
:1005600031688A0701D512A502E0490704D511A513
:10057000012401E0FFF7B2FF00210A2206F124075F
:1005800009E0B0FBF2FCB0FBF2F302FB1C003030E0
:1005900078541846491C0028F3D123462A46304691
:1005A000BDE8F04100F061BA000000002D0000003D
:1005B0002B0000002000000011680268006A53054B
:1005C00001D508700AE0D30501D5088006E01306BE
:1005D00003D5C217C1E9000200E00860012070479E
:1005E00001694A1C02610878704700B58FB0CDE9F7
:1005F00001310021059105497944CDE903101146E7
:10060000684600F029F90FB000BD0000E5FFFFFFCC
:100610000A6802F8010B0A60704700002DE9FF5FCD
:1006200015468A460446DFF8AC80F8440027D8E92E
:1006300000103E46CDE9001010E03AF816106A4668
:1006400002A800F025FE411C07D02178890603D5B9
:10065000E269391891420DD80744761C207880064B
:1006600002D5E069B84205DDAE42E6DB3AF8160095
:100670000028E2D1A069C01BA0612046FFF7FEFE62
:10068000D8E90010CDE90010002017E03AF8181062
:100690006A4602A800F0FCFDB0F1FF3F81460BD096
:1006A00000250DF1080B05E0D4E901211BF8050038
:1006B00090476D1C4D45F7D308F10100B0428046CC
:1006C000E4DB206A384420622046FFF7EDFEBDE8F7
:1006D000FF9F00007A3B00002DE9F0418046D21DCB
:1006E00022F007020025D2E90002F52915A614D050
:1006F000011E72F1000106DA0023D0EB030063EB68
:10070000020211A608E0D8F800108B0701D50FA649
:1007100002E0490701D50EA601251146002408F183
:10072000240704E000F05CF930323A55641C50EACA
:100730000102F7D12B46324621464046BDE8F04142
:1007400000F093B9000000002D0000002B00000015
:100750002000000030B4002100F1240408E002F081
:100760000705D208303542EA4372DB086554491C5C
:1007700052EA0305F3D10468002310A2250707D528
:10078000A40600D421B1C46901230DA2641EC46172
:1007900030BC00F06AB910B5044621461068FFF776
:1007A0009DFE02462046BDE810400023D2E7D21D40
:1007B00022F00701D1E90023CCE70000000000008F
:1007C00030000000F0B40D460188090502D5214C27
:1007D0007C4402E01F4C7C440E34002100F12406CE
:1007E00008E002F00F071209E75D42EA03721B09F5
:1007F0007754491C52EA0307F3D102780023120709
:1008000004D5702D06D009B1022311342246F0BC64
:1008100000F02BB901231034F8E770B504460D46FB
:1008200021461068FFF75AFE024629462046BDE8D9
:1008300070400023C6E7D21D22F00703D3E900234E
:10084000C0E70368126843F0200303600823C36114
:100850000023B7E7DC3900002DE9F05F8946044644
:100860004FF0000ADFF874B1FB44C0F820A0204626
:10087000E1688847002874D0252806D0D4E90121F2
:100880009047206A401C2062F1E700265F46204620
:10089000E16888472028054607DB312D05D2781905
:1008A00010F8200C08B10643F1E7B00701D526F097
:1008B0000406C4F81CA00027C4F818A02A2D09D0EB
:1008C000284603F0E7FA38B304EB8708303DC8F850
:1008D000185019E059F8041B204604EB8702916177
:1008E000E1688847012F054618D1E069002820DA21
:1008F00026F020061DE0D8F8180000EB800005EB7C
:1009000040003038C8F818002046E168884705469E
:1009100003F0C0FA0028EED1012F0AD02E2D08D105
:100920002046E16888477F1C0546022F46F02006D6
:10093000C4DBA069002803DA404246F00106A0614A
:10094000F00701D026F010066C2D0BD0682D09D0D1
:100950004C2D39D06A2D35D0742D35D07A2D33D029
:1009600016E038E0E1682F4620468847B842054641
:1009700009D16C2F26D04FF48060E16806432046F1
:100980008847054604E06C2F1AD04FF48070064368
:100990000DB3A5F14100192802D8203546F40066B0
:1009A0004A462946204626604E46FFF727FC80B17E
:1009B00001280BD0F61D26F0070000F1080956E7C4
:1009C0004020E4E78020D8E70020D6E706F10409BC
:1009D0004DE7284652E7206ABDE8F09F6C390000D9
:1009E00030B5B0F10A024FEA900E71F100034EEA01
:1009F000817EB0EB0E0061EB91014FEA101E4EEAD2
:100A0000017E10EB0E0041EB11114FEA102E4EEA61
:100A1000016E10EB0E0041EB11214FEA104E4EEA31
:100A2000014E10EB0E0041EB1141401841F1000165
:100A30004FEAD00040EA41704FEAD10110EB800547
:100A40004FEA810444EA907444EB01046D1944EBCD
:100A50000404521BA3414FF0000348BF0A3200D5E3
:100A600030BD401C41F1000130BD2DE9F0470D467D
:100A700099469246044600F124080168880604D588
:100A8000E06921F01001216000E00120A84201DDB1
:100A9000471B00E00027A1697A1902EB0900081A38
:100AA000A0612078C00602D42046FFF7E7FC0026AC
:100AB00008E0D4E901211AF806009047206A401C9A
:100AC000761C20624E45F4DB2078C0060AD520460D
:100AD000FFF7D4FC06E0D4E9012130209047206ADA
:100AE000401C2062381EA7F10107F4DC07E0D4E9BE
:100AF000012118F805009047206A401C2062281E3A
:100B0000A5F10105F3DC2046FFF7CEFC20780006B6
:100B100002D50220BDE8F0870120FBE770472DE9F0
:100B2000FF4F0C461E464FF0FF378BB0D2E9000155
:100B3000DDF860800A908A46C1F30A5505B93D4642
:100B4000002108464FF00000BAF1000F00F4400009
:100B500005DA00EB80004FF4400101EA50004FEA53
:100B60009059B9F1010F00DDB9460A9850EA4A00E0
:100B70000ED044F61050A5F2FF3545432F14B8F1BE
:100B8000000F1ED07542291E1EDDC9F100021CE0B7
:100B9000B8F1010F4FF0000001D0302103E0F24323
:100BA00005E02154401CB042FBDB3046002200210E
:100BB00021540B99C1F80880C1E900200FB0BDE8AD
:100BC000F08FBD1B6D1CDEE74A4600DA694206A8BD
:100BD00000F0F0FB06AB93E8070003AB83E80700E7
:100BE00050460A9900F0ADFC8DE80700A0F50050D2
:100BF0001F3800900398002D0ADD42F21F014A467B
:100C00000844002303A90390684600F016FF09E09A
:100C1000A0F500504A461F38002303A903906846F8
:100C200000F020FF8DE807000004000C03D04FF017
:100C3000FF30410800E01046B8F1000F03D0002259
:100C4000009215461EE0751E05D4FFF7C9FE30322E
:100C500062556D1EF9D5B3460122084302D0002229
:100C60007F1C04E02078302801D100227F1E002A5A
:100C7000099784D01DE0112D07DAFFF7B1FE30325D
:100C800062556D1C50EA0102F5D1084302D000986C
:100C9000C8B10EE00021681E05E0235C625C63546D
:100CA0002254401E491C8142F7DBAB46A81B401E64
:100CB0000990002004F80B000B98099AC0F80880EE
:100CC000C0E9002B7AE711264FF0000857E72DE91D
:100CD000F04F88460446D21D22F0070191B0D1E9B9
:100CE0000001CDE90A0103F0A1F802460B98C00FFC
:100CF00001D02D2007E02068810701D52B2002E0DC
:100D0000202101EAC000032A099001D0072A05DB4F
:100D100003464146204600F00DFB0BE1207880069B
:100D200001D5E06900E00620B8F1650F814606D0E4
:100D3000B8F1660F18D0B8F1670F70D131E000201C
:100D4000B9F1110F009001DB112301E009F101035A
:100D50000AAA01A90CA8FFF7E2FEDDE90C70002643
:100D600009F10105834647E001204B4600904FF012
:100D700000470AAA01A90CA8FFF7D1FEDDE90DB0D2
:100D80000C995D46002610B909F101000D18B9EB68
:100D9000050003D4C0F1FF3609F10105A5EB0900F8
:100DA0002BE0B9F1010F01DA4FF001090020B9F190
:100DB000110F0090484601DD112300E003460AAA06
:100DC00001A90CA8FFF7ABFEDDE90C704D4600262B
:100DD0008346207800070AD4AB4500DA5D4601A8B7
:100DE000012D04DD411911F8011C302907D04F45B0
:100DF00002DA17F1040F04DA012082460FE06D1EBB
:100E0000EEE7002F02DCED1B3E4403E0781CA84215
:100E100000DD7D1CB81B00F1010A4FF0004720786F
:100E2000000703D4AA4501DB4FF0FF3A0021B7F1D8
:100E3000004F0DF143088DF8431024D002202B23DE
:100E4000002F01DA7F422D230A21021EA0F10100AA
:100E500000DC5FB197FBF1FC97FBF1F201FB1C7C1E
:100E600017460CF1300C08F801CDEEE7A8F10100AF
:100E700003702188090501D5452100E06521A0F115
:100E8000010800F8011C09980FA9A1EB0807FF1D34
:100E900000B10120411901EBEA70A1693844081A38
:100EA000401EA0612078C00602D42046FFF7E6FA73
:100EB000099828B1D4E901219047206A401C20629A
:100EC0002078C00622D52046FFF7D8FA1EE0002E73
:100ED00004DBB34502DD01A8805D00E03020D4E9E9
:100EE00001219047206A401C2062761CAAF1010073
:100EF0005FEA000A0AD100F019FAC0680168405C94
:100F0000D4E901219047206A401C2062281EA5F1E7
:100F10000105DCDC07E0D4E9012118F8010B90475A
:100F2000206A401C2062381EA7F10107F3DC20462E
:100F3000FFF7BAFA032011B041E600002DE9F04FA7
:100F400004460D46D21D22F0070089B0D0E9009773
:100F50004846394602F06AFF0246F80F01D02D23B9
:100F600007E02068810701D52B2302E0202101EA58
:100F7000C0038DF820300BB1012000E00020032ACF
:100F8000824601D0072A04DB2946204600F0D2F928
:100F90003FE12078800601D40D2500E0E569C7F324
:100FA0000A560D2D49DA00214FEA175B08464FF02B
:100FB0000000002F00F4400007DA00EB80004FF43F
:100FC000400100EBD07001EA60008115012901DDCC
:100FD0004FF0FF3100224FEA850CBCF1180F06D309
:100FE0001346ACF118004FF08052C24003E04FF4BA
:100FF000801323FA0CF30CF10C0CBCF1200F04D37A
:10100000ACF1200C09FA0CF001E007FA0CF0002911
:101010004FF0004801DD18B90FE00ED140450CD368
:1010200019EB02095F4121B9404502D19F4329EAEA
:101030000209BBEB175F00D0761C2088000502D5A3
:101040007B48784402E07A487844193808AA30236B
:1010500002F80A30037C0AF10101002E0AF1020AAB
:1010600053546A4602DC4FF0300101E04FF0310189
:101070004FF001088DF8001002D0A6F2FF3603E011
:1010800059EA470100D06B4E002D02DC2178090798
:1010900004D54FF002082E218DF80110C44600211E
:1010A0000BE0C7F303433F01C35C491C6D1E02F80C
:1010B0000830052908F1010801DA002DF1DC0021D2
:1010C0000CE000EB1973491C1B786D1E082902F80F
:1010D00008304FEA091908F1010801DA002DF0DCA7
:1010E00021688B0602D516E0A8F10108E04505DD70
:1010F00002EB080313F8013C302BF5D0B8F1000FD8
:1011000009DD02EB080313F8013C2E2B03D109077C
:1011100001D4A8F10108002D05DD3E2102F80810D8
:101120006D1E08F10108407C002E02F8080008F14D
:10113000010804DA2D20764202F8080002E02B2094
:1011400002F808000A214FF47A70864208F101087B
:101150000BDB96FBF0F3303302F8083096FBF0F32C
:1011600008F1010800FB136601E0642E0CDB64202B
:1011700096FBF0F3303302F8083096FBF0F308F1F9
:10118000010800FB136601E00A2E06DB96FBF1F076
:10119000303002F8080008F1010896FBF1F001FB7D
:1011A0001060303002F80800A16908F1010808EB6E
:1011B000050202EB0A00081AA0612078C00602D4DA
:1011C0002046FFF75BF9216A08AE01EB0A002062B6
:1011D00004E0D4E9012116F8010B9047BAF1010AA5
:1011E000F7D22078C00602D52046FFF747F96E46B1
:1011F00009E016F8010B3E280FD0D4E901219047F1
:10120000206A401C2062B8F10108F2D22046FFF7A4
:101210004BF909B00320BDE8F08F206A2844206212
:1012200003E0D4E90121302090476D1EEBD3F8E7AD
:10123000B631000002FCFFFF10B5436913B1AFF3F4
:10124000008001E0FFF753F9012010BD127800F192
:1012500024010A7000224A700122EDE711684FF064
:10126000FF32E9E710B5436913B1AFF3008001E045
:10127000FFF7D4F9012010BD128800F12401828407
:101280000022C2840122EDE711684FF0FF32E9E746
:1012900070B516460C46054600F040F8036893F812
:1012A0000101012806D0FF2C0FD8185D68B101207C
:1012B0002C7070BDD3F807013246214603F20713A4
:1012C00003442846BDE8704018474FF0FF3070BD1A
:1012D000754600F0EBF8AE4605006946534620F02F
:1012E0000700854618B020B5FFF702F8BDE820409A
:1012F0004FF000064FF000074FF000084FF0000BD2
:1013000021F00701AC46ACE8C009ACE8C009ACE884
:10131000C009ACE8C0098D467047000010B500F068
:1013200005F8001D10BD00BF3D2D000000487047AE
:10133000C40200202DE9F0411F460446032601683F
:10134000072A01F4006004DB08B116A505E016A524
:1013500003E008B115A500E015A521F010002060FC
:10136000A069C01EA0610FB1401EA0612046FFF71A
:1013700085F84FB1D4E9012138469047206A401CD6
:101380002062C01C206206E0206AFAE7D4E901214D
:1013900015F8010B9047761EF8D22046FFF784F827
:1013A000BDE8F0814E414E006E616E00494E460030
:1013B000696E66002DE9F047814616468AB03548C9
:1013C00078440DC88DE80D0032487844801C03AC89
:1013D0000DC884E80D0041F69B300844372190FB8E
:1013E000F1F290FBF1F5A5F1800501FB12041B3C25
:1013F00002D56442012000E00020DFF898A080467A
:101400000027FA44AAF1BE0A0EE0E0070AD03246ED
:10141000684607EB470101230AEB810100F022FB3C
:101420008DE8070064107F1C002CEED1194F7F441B
:10143000AE3F19E0E80715D007EB04100DF1180ACC
:1014400090E80E008AE80E00C068F04201D19819B9
:1014500008903246012306A903A800F003FB03AB62
:1014600083E807006D10641C002DE3D14FF00103E9
:1014700032466946B8F1000F03A802D000F0DDFA49
:1014800001E000F0EFFAC9E90001C9F808200AB04C
:10149000BDE8F087C82E000010B50446AFF3008009
:1014A0002046BDE81040FEF70EBF00000048704720
:1014B000A40200204FF0013C50F8042B51F8043BEB
:1014C0009A4221D1A2EB0C03934313EACC1317D118
:1014D00050F8042B51F8043B9A4215D1A2EB0C03AF
:1014E000934313EACC130BD150F8042B51F8043B6F
:1014F0009A4209D1A2EB0C03934313EACC13DBD03D
:101500004FF00000704700BFD01A01BAB1FA81F164
:1015100001F0180122FA01F0CB40C1F12001DBB249
:10152000C0B2C01A2CFA01F3D11A914311EAC311C7
:10153000E6D1704701491820ABBEFEE72600020045
:1015400070475FEA400C08BF91F0000F4FEA8C2310
:101550004FEAC12243EA51514FEA1C5018BF00F52F
:10156000F0404FEA300018BF41F000415FEA6C5C88
:1015700000F02980BCF1FF3F08BF40F08040704779
:10158000130C06BF12044FF0100C4FF0000C130E9A
:1015900004BF12020CF1080C130F04BF12010CF16E
:1015A000040C930F04BF92000CF1020CD30F04BF84
:1015B00052000CF1010C11464FF00002A0F11F0087
:1015C000A0EB0C00704711F0004F08BF704731F0DE
:1015D00000413FF4D5AF0B0C06BF09044FF0100CCF
:1015E0004FF0000C0B0E04BF09020CF1080C0B0F9E
:1015F00004BF09010CF1040C8B0F04BF89000CF12E
:10160000020CCB0F04BF49000CF1010CCCF12003FC
:10161000A0EB0C0022FA03F302FA0CF241EA0301F8
:1016200000F10100704720F07F4C80EA030023F0B6
:101630007F47ACEB070303F57C5300F0004003F158
:10164000FF032DE980494FEA154B09B44FEA1443D3
:1016500025EA0B4E24EA03480FF2042606EB132773
:1016600049083E785FEA320203FB0667C7F50007C8
:1016700007FB06F64FEA54374FEAD64606F1020654
:1016800007FB066CCCF1005C4FEA1C472CEA074CC8
:1016900007FB06F40CFB06F504EB15464FEA96161D
:1016A00034BF00204FF000404FEAD13706FB07FC63
:1016B0004FEA1C4C0CFB0BF7D21B03FB0CF761EB46
:1016C00007010CFB0EF7B0EB074072EB17420CFB67
:1016D00008F734BFA2EB0742B2EB074261EB1741B8
:1016E0004FEA0C444FEA910706FB07FC4FEA1C4CFB
:1016F0000CFB0BF7B0EBC74072EB573203FB0CF758
:1017000034BFA2EBC742B2EBC74261EB57310CFBCF
:101710000EF7B0EBC70072EB57720CFB08F734BF43
:10172000A2EBC702B2EBC70261EB5771039F4FEA0E
:10173000816141EA921104EBCC044FEAD1374FEAC0
:10174000826206FB07FC42EA90124FEA80604FEA91
:101750001C4C0CFB0BF7D21B03FB0CF761EB0701D6
:101760000CFB0EF7B0EB074072EB17420CFB08F7CF
:1017700034BFA2EB0742B2EB074261EB17414FEADD
:101780008C554FEA910704EB9C2406FB07FC4FEABB
:101790001C4C0CFB0BF7B0EBC74072EB573203FB52
:1017A0000CF734BFA2EBC742B2EBC74261EB573133
:1017B0000CFB0EF7B0EBC70072EB57720CFB08F78F
:1017C00034BFA2EBC702B2EBC70261EB577115EB56
:1017D0004C254FEA816141EA92114FEA82624FEA59
:1017E000D13742EA901206FB07FC44F100044FEAAD
:1017F00080604FEA1C4C0CFB0BF7D21B03FB0CF771
:1018000061EB07010CFB0EF7B0EB074072EB1742E0
:101810000CFB08F734BFA2EB0742B2EB074261EBC7
:10182000174115EB1C154FEA813141EA92414FEA0D
:10183000823242EA90424FEA80304FEA0C7644F11D
:10184000000448EA03434EEA0B484FF0000EB2EBA7
:10185000080C71EB030724BF624639464EEB0E0EAF
:101860004FF0000B0018524149414BEB0B0BB2EB10
:10187000080C71EB03077BF1000B24BF624639466D
:101880004EEB0E0E4FF0000B0018524149414BEB4E
:101890000B0BB2EB080C71EB03077BF1000B24BFC1
:1018A000624639464EEB0E0E51EA020718BF46F06B
:1018B000010616EB0E7655F1000254F1000103D536
:1018C000BDE88901BDE80088BDE88901BDE80048A0
:1018D000B619524141EB0101A3F101037047808029
:1018E0007F7E7D7C7B7A797877767675747372717A
:1018F00071706F6E6E6D6C6C6B6A6A696868676632
:1019000066656464636362616160605F5F5E5E5DC3
:101910005D5C5C5B5B5A5A59595858575756565537
:1019200055555454535352525251515050504F4F99
:101930004F4E4E4D4D4D4C4C4C4B4B4B4A4A4A49E9
:10194000494948484847474747464646454545442C
:101950004444444343434342424242414141002BB9
:101960009C4630D477002BD01CB54FEA370703B420
:101970004FF010004FF01001BAF1000F06D0BCF18B
:10198000000FDCBF40F0080040F008014FF00000FD
:101990000FBCBDE810400BF1010BBBF1010F08BFFC
:1019A0005FEA170722BF12F1010211F101014FF0A6
:1019B000004143F1000300F0004043EA000070479B
:1019C000F9D35708D0E746EA064613F1400F4FEA2D
:1019D00016461FDD13F1200FDFBF16430A46002114
:1019E00020335B42BED0C3F1200746EA064602FA26
:1019F00007F74FEA164646EA0706C3F1200722FA20
:101A000003F201FA07F721FA03F14FF0000342EA6B
:101A10000702A7E746EA020646EA06464FEA1646E6
:101A200046EA0106BCBF46EA0646360C4FF0000304
:101A30004FF000024FF0000194E72DE9804C9A46E8
:101A4000934670B491E8380007C831EA400C48BFAB
:101A500034EA430C03D5FFF7E6FDFFF780FFF0BC47
:101A6000BDE8008C2DE9804C9A46934670B491E80D
:101A7000380007C810F0804F08BF13F0804F03D123
:101A800000F005F8FFF76BFFF0BCBDE8008C20F01C
:101A90007F4780EA030023F07F4C07EB0C03A3F59C
:101AA0007C5300F00040A3F1FE0392F0000F00F021
:101AB000B38095F0000F00F077802DE901494FEADF
:101AC00011404FEA144621EA004800FB06FC24EAD4
:101AD000064708FB06F607FB08F800FB07F718EBBC
:101AE00006484CEB164C4FEA124B18EB07484FEAEE
:101AF00015464CEB174022EA0B4E0BFB06FC25EA81
:101B000006470EFB06F607FB0EFE0BFB07F71EEB68
:101B1000064E4CEB164C4FF000061EEB074E4CEBFE
:101B2000174B18EB0B0840F1000018EB0E0B58EBAD
:101B3000000840F100008F1A4FF000013CBFC9437C
:101B4000661B14BFB5EB040C00213CBFC943F61B58
:101B50004FEA17444EEA8E0E27EA04454FEA1C4727
:101B600004FB07622CEA074C05FB07F70CFB05F6A4
:101B700004FB0CFC16EB074642EB174216EB0C4637
:101B800042EB1C421BEB060658EB0202414146EABF
:101B90009E0601D5BDE80189B619524141EB01010C
:101BA000A3F10103BDE801894FEA14454FEA11474B
:101BB00024EA054621EA074C05FB07F406FB07F774
:101BC0000CFB06F105FB0CFC11EB074144EB174441
:101BD0004FEA124711EB0C4144EB1C4422EA074C3C
:101BE00005FB07F206FB07F70CFB06F605FB0CFCF2
:101BF00016EB074642EB174216EB0C4642EB1C4530
:101C00006A1854F1000148BF7047B619524141EBC0
:101C10000101A3F10103704795F0000F37D04FEA9F
:101C200011424FEA144721EA024624EA074C02FB1C
:101C300007F106FB07F70CFB06F402FB0CFC14EBA8
:101C4000074441EB17414FEA154714EB0C4441EBB5
:101C50001C4125EA074C02FB07F506FB07F70CFBC6
:101C600006F602FB0CFC16EB074645EB174516EB98
:101C70000C4645EB1C42121951F1000148BF704758
:101C8000B619524141EB0101A3F1010370474FEA3C
:101C900014454FEA114724EA054621EA074C05FBA3
:101CA00007F106FB07F70CFB06F24FF0000605FBF9
:101CB0000CFC12EB074241EB174112EB0C4251EBCB
:101CC0001C4148BF7047921841EB0101A3F1010389
:101CD000704700BFFEE7000010B5024800F063FA4D
:101CE00010BD00009401002010B5024800F05BFA1E
:101CF00010BD0000BC010020F8B507460C46154693
:101D00001E464FF400700D49086000208860C860CE
:101D100008200861380A0A4908704F70200A887044
:101D2000CC70280A08714D71300A8871CE716B46EB
:101D30000A460249034800F036F8F8BD8C0200203C
:101D4000340000209401002030B50468246824F495
:101D5000802405682C60046863608468402C04D18A
:101D60000468A2600468E16003E00468A16004689C
:101D7000E26030BD704772B600BFFEE710B50246A4
:101D800092F82030012B01D0022B06D11068406957
:101D9000084314686061002010BD506A40F4802040
:101DA00050620120F8E7F0B504460D461E4694F84F
:101DB000207020688368A86800B900E000BF012F88
:101DC00001D0022F7DD103F0806030B903F00060B4
:101DD00018B903F0805000287ED0C3F301610120C0
:101DE00088403060A86860B9B5F800C0E86840EA8B
:101DF0004C5C206800F5C07000EB0110C0F800C01A
:101E00000FE0D5E901C040EACC00D5F80CC040EAAB
:101E10000C00D4F800C00CF5C07C0CEB011CCCF815
:101E20000000D5F810C0206800F5C07000EB01106C
:101E3000C0F804C0287D01280ED1206800F5C070CC
:101E400000EB0110406840F4807C206800F5C07011
:101E500000EB0110C0F804C0D079000692F806C06B
:101E600040EA0C4092F805C040EA0C2092F804C009
:101E700040EA0C00D4F800C00CF5C07C0CEB011C4F
:101E8000CCF80C00D078000692F802C040EA0C4072
:101E900092F801C040EA0C2092F800C040EA0C0021
:101EA000D4F800C00CF5C07C0CEB011CCCF8080089
:101EB000206800F5C07000EB0110006840F0010CD4
:101EC00001E00FE008E0206800F5C07000EB0110B1
:101ED000C0F800C00020F0BD606A40F400106062ED
:101EE0000120F8E7606A40F4802060620120F2E798
:101EF000F0B504460A4694F82050012D01D0022D79
:101F00007ED1424901F50071086840F00100086087
:101F1000086820F47C5008600868566A40EA062089
:101F20000860107D00F01F06012000FA06F3C86962
:101F30009843C861A1F50071D069C8B9D1F80C0205
:101F40009843C1F80C02908880B2968940EA064610
:101F500001F51070576940F83760108880B2168913
:101F600040EA064601F51070576900EBC70046606D
:101F7000D069012819D1D1F80C021843C1F80C021C
:101F8000908880B2168840EA064601F510705769BD
:101F900040F83760908980B2168940EA064601F51C
:101FA0001070576900EBC7004660906928B9D1F8F6
:101FB00004029843C1F8040204E0D1F80402184373
:101FC000C1F80402106928B9D1F814029843C1F885
:101FD000140204E0D1F814021843C1F81402106A84
:101FE000012804D1D1F81C021843C1F81C02D1F811
:101FF000000220F00100C1F800020020F0BDFFE760
:10200000606A40F4802060620120F7E700640040CD
:10201000704770B5044694F82050012D01D0022D70
:102020007DD151B92068C06800F0030080B9606AB2
:1020300040F400106062012070BD2068006900F06B
:10204000030028B9606A40F4001060620120F3E7E1
:10205000206800F5D87000EB0110006800F0040063
:102060009060906840B9206800F5D87000EB0110CE
:102070000068400D106007E0206800F5D87000EBA4
:1020800001100068C0085060206800F5D87000EBAF
:102090000110006800F00200D060206800F5D870E0
:1020A00000EB0110406800F00F00082802D3082060
:1020B000106108E0206800F5D87000EB011040685E
:1020C00000F00F001061206800F5D87000EB0110DF
:1020D000406800F47F40000A9061206800F5D870E5
:1020E00000EB01104068000C5061206800F5D870CA
:1020F00000EB011080681870206800F5D87000EBC4
:102100000110806800F47F40000A5870206800F5D4
:10211000D87000EB0110806800F47F0000E03CE024
:10212000000C9870206800F5D87000EB01108068F2
:10213000000ED870206800F5D87000EB0110C06860
:102140001871206800F5D87000EB0110C06800F429
:102150007F40000A5871206800F5D87000EB01102C
:10216000C06800F47F00000C9871206800F5D870FA
:1021700000EB0110C068000ED87131B92068C0684A
:1021800040F020002668F06005E02068006940F01B
:1021900020002668306100204EE7606A40F480200D
:1021A0006062012048E72DE9F05F044600252068C1
:1021B00046692068D0F80490206887682068D0F8C5
:1021C0000CA02068D0F810B02068D0F8188006F075
:1021D0000100002855D007F00100C0B1012021689E
:1021E000886007F0020018B1204600F054FB0EE0B2
:1021F00007F0040010B145F4006508E007F008009E
:1022000010B145F4805502E0204600F043FB07F48E
:102210008070C8B14FF480702168886007F4007046
:1022200018B1204600F039FB0EE007F4806010B1D1
:1022300045F4005508E007F4006010B145F480450E
:1022400002E0204600F028FB07F48030C8B14FF4CC
:1022500080302168886007F4003018B1204600F013
:102260001EFB0EE007F4802010B145F4004508E0A5
:1022700007F4002010B145F4803502E0204600F05C
:102280000DFB06F0080038B10AF0100020B145F44B
:10229000007510202168C86006F0040040B10AF003
:1022A000080028B108202168C860204600F00CFA18
:1022B00006F0020038B12068C06800F0030010B1D9
:1022C000204600F003FA06F0400038B10BF0100091
:1022D00020B145F4806510202168086106F02000D7
:1022E00040B10BF0080028B10820216808612046A1
:1022F00000F09EFA06F0100038B12068006900F086
:10230000030010B1204600F094FA06F4003040B10A
:1023100009F0100028B1102021684860204600F024
:1023200089FA06F4803040B109F0080028B108208D
:1023300021684860204600F0B3FA06F4004088B3F4
:1023400009F0040078B306F4807020B108F00100B1
:1023500008B145F0010506F4007020B108F0020054
:1023600008B145F0020506F4806020B108F00400D1
:1023700008B145F0040506F40060A0B108F0700053
:1023800088B108F07000402817D006DC10280BD068
:1023900020280CD0302819D10CE0502810D060280B
:1023A00014D110E01DE019E045F008050FE045F0FC
:1023B00010050CE045F0200509E045F0400506E079
:1023C00045F0800503E045F4807500E000BF00BFE4
:1023D0002068806920F070002168886104202168ED
:1023E00048602DB1606A284360622046FFF710FE06
:1023F000BDE8F09F70B504460CB9012070BD94F89B
:10240000200010B9204600F0AFF82068006840F0C6
:1024100001002168086000F09BFB05460DE000F01C
:1024200097FB401B0A2808D9606A40F400306062BC
:10243000052084F820000120E0E72068406800F0D3
:1024400001000028EBD02068006820F0020021681D
:10245000086000F07DFB05460DE000F079FB401BB5
:102460000A2808D9606A40F400306062052084F8C8
:1024700020000120C2E72068406800F00200002828
:10248000EBD1207E012806D12068006840F0800052
:102490002168086005E02068006820F0800021685D
:1024A0000860607E012806D12068006840F0400086
:1024B0002168086005E02068006820F0400021687D
:1024C0000860A07E012806D12068006840F0200046
:1024D0002168086005E02068006820F0200021687D
:1024E0000860E07E012806D12068006820F0100016
:1024F0002168086005E02068006840F0100021684D
:102500000860207F012806D12068006840F008009C
:102510002168086005E02068006820F00800216854
:102520000860607F012806D12068006840F0040040
:102530002168086005E02068006820F00400216838
:102540000860D4E90201084321690843616908432E
:102550006168491E08432168C8610020606201204B
:1025600084F82000002049E710B586B00446142105
:1025700001A8FDF759FF4E492068884241D14D48D6
:102580000068401C4B4908600846006801280FD1CC
:1025900000BF002000904848006840F000704649A5
:1025A00008600846006800F00070009000BF00BF9F
:1025B00000BF0020009040481038006840F008003C
:1025C0003D49103908600846006800F00800009096
:1025D00000BF00BF03200190022002900020039062
:1025E000032004900920059001A9344800F0B6F9B1
:1025F00000221146142000F039FB142000F022FBC9
:1026000054E02F492068884250D100BF002000903C
:102610002948006840F08060274908600846006843
:1026200000F08060009000BF00BF22480068401C9E
:10263000204908600846006801280FD100BF00202B
:1026400000901D48006840F000701B490860084673
:10265000006800F00070009000BF00BF00BF0020C5
:10266000009015481038006840F0020012491039F7
:1026700008600846006800F00200009000BF00BF3C
:10268000602001900220029000200390032004901B
:102690000920059001A90B4800F060F900221146BD
:1026A000402000F0E3FA402000F0CCFA06B010BD64
:1026B000006400401800002040380240000C024036
:1026C00000680040000402407047000010B58AB066
:1026D000044601AB03AA00212046FFF79AFC0398A9
:1026E000A0F2012007287CD2DFE800F004050607ED
:1026F000084E4F0000BF00BF00BF00BF0398401E40
:10270000484908700846007800EB8000464931F8D7
:10271000100000B24349097801EB8101424A02EB03
:10272000410108819DF805009DF8041040EA012050
:102730003C49097801EB810122F811009DF807005E
:102740009DF8061040EA012000B23649097801EBF5
:10275000810102EB410148809DF809009DF80810B5
:1027600040EA012000B22F49097801EB810102EB18
:10277000410188809DF80A002A49097801EB81010E
:1027800002EB4101887149E000BF0398401E2749D0
:1027900008700846007800EB8000234931F81000EB
:1027A00000B22249097801EB81011F4A02EB410185
:1027B00008819DF805009DF8041040EA01201B499E
:1027C000097801EB810122F811009DF807009DF8BE
:1027D000061040EA012000B21449097801EB81019A
:1027E00000E01AE002EB410148809DF809009DF8E5
:1027F000081040EA012000B20C49097801EB810180
:1028000002EB410188809DF80A000849097801EB34
:10281000810102EB4101887100E000BF00BF0AB0F6
:1028200010BD00003C0000202C0200203D000020D4
:1028300070477047704770B5044694F8200001282F
:1028400022D1022084F820002068006820F00100D6
:102850002168086000F07CF905460DE000F078F989
:10286000401B0A2808D9606A40F4003060620520E5
:1028700084F82000012070BD2068406800F001004D
:102880000028EBD16062F6E7606A40F400206062E5
:102890000120F0E7704770477047704770477047F6
:1028A00070472DE9F04704460D4616461F464FF087
:1028B0000008D4F8589000BF94F83400012802D1E1
:1028C0000220BDE8F087012084F8340000BF94F8AE
:1028D0003500012825D1022084F8350000206065EC
:1028E0003B46324629462046FFF72EFA94F85C1004
:1028F0003F208840C9F808002068006840F01600B2
:1029000021680860206C28B12068006840F0080049
:10291000216808602068006840F0010021680860B4
:1029200006E000BF002084F8340000BF4FF002082A
:102930004046C6E770B5044600F00AF9064625464B
:10294000681C10B104480078054400BF00F000F98D
:10295000801BA842FAD370BD24000020F8B50246BF
:102960000B460025002400200021D6E0012606FAAF
:1029700001F51E6806EA0504AC4274D11E7906F022
:102980000306012E04D01E7906F00306022E13D191
:1029900090684F000326BE40B0434F00DE68BE4043
:1029A00030439060506801268E40B0431E79C6F3D4
:1029B00000168E40304350601E7906F00306032E49
:1029C00009D0D0684F000326BE40B0434F009E6838
:1029D000BE403043D0601E7906F00306022E13D1AC
:1029E000CF0802F1200656F827004E07F70E0F26F3
:1029F000BE40B0434F07FF0E1E69BE403043CF08B4
:102A000002F1200646F8270010684F000326BE405A
:102A1000B0431E7906F003064F00BE4030431060FD
:102A20005E6806F44036002E76D000BF0026009681
:102A30003C4E366846F480463A4F3E603E46366825
:102A400006F48046009600BF00BF374E8F0856F848
:102A500027008E07370F0F26BE40B043334EB242D9
:102A600002D1002624E057E0314EB24201D10126C6
:102A70001EE0304EB24201D1022619E02E4EB24283
:102A800001D1032614E02D4EB24201D104260FE0FD
:102A90002B4EB24201D105260AE02A4EB24201D1A4
:102AA000062605E0284EB24201D1072600E008269E
:102AB0008F073F0FBE4030431B4E8F0846F827005C
:102AC000224E3068A0435E6806F4801606B12043AB
:102AD0001E4E3060361D3068A0435E6806F4001656
:102AE00006B12043194E361D3060184E361F30682F
:102AF000A0435E6806F4003606B12043134E361F2D
:102B00003060361F3068A0435E6806F4803606B138
:102B100020430E4E083E3060491C1029FFF426AFBA
:102B2000F8BD00004438024008380140000002406F
:102B30000004024000080240000C02400010024065
:102B40000014024000180240001C0240083C0140F2
:102B500001480068704700001C000020034800681E
:102B60000349097808440149086070471C000020A7
:102B70002400002010B50D48006840F400700B4997
:102B800008600846006840F48060086008460068F5
:102B900040F480700860032000F0A6F80F2000F0D9
:102BA00007F800F02BF8002010BD0000003C0240A8
:102BB00070B504460E4800784FF47A71B1FBF0F01E
:102BC0000C490968B1FBF0F5284600F02FFC08B16C
:102BD000012070BD102C07D200222146501E00F0AB
:102BE00045F80548046001E00120F2E70020F0E725
:102BF00024000020280000202000002008B500BF8D
:102C0000002000900E48006840F480400C490860A5
:102C10000846006800F48040009000BF00BF00BF7D
:102C200000200090081F006840F08050091F0860D5
:102C30000846006800F08050009000BF00BF08BD4B
:102C4000443802400146084600280DDB00BF00BFA3
:102C500000F01F0301229A4043099B0003F1E02387
:102C6000C3F8002100BF00BF00BF70472DE9F05F2F
:102C700080460D461646002701F0F0F80746394613
:102C80002A46334601F00700C0F1070ABAF1040FE3
:102C900002D94FF0040A01E0C0F1070AD14600F161
:102CA000040ABAF1070F02D24FF0000A01E0A0F1C6
:102CB000030AD4464FF0010A0AFA09FAAAF1010AF6
:102CC0000AEA020A0AFA0CFA4FF0010B0BFA0CFBA3
:102CD000ABF1010B0BEA030B4AEA0B042146404619
:102CE00001F0C4F8BDE8F09F00BF00F00702064BFA
:102CF00019684FF6FF031940044B0B4343EA0221C6
:102D0000014B196000BF70470CED00E00000FA05B0
:102D100070B504460D460CB9012070BD58480068D6
:102D200000F00700A84209D255490D700846006816
:102D300000F00700A84201D00120EEE7207800F063
:102D4000020002281DD1207800F00400042805D1DB
:102D50004C48006840F4E0504A490860207800F090
:102D60000800082805D14748006840F460404549FC
:102D700008604448006820F0F000A1680843414919
:102D80000860207800F00100A8B36068012807D12E
:102D90003C4808380068C0F34040B8B90120BCE79F
:102DA0006068022802D06068032807D135480838D7
:102DB0000068C0F3406048B90120AEE731480838E8
:102DC0000068C0F3400008B90120A6E72D4800685C
:102DD00020F00300616808432A490860FFF7B8FE45
:102DE000064609E0FFF7B4FE801B41F288318842B5
:102DF00002D9032091E707E02248006800F00C00A8
:102E00006168B0EB810FEDD11D48006800F007004C
:102E1000A84209D91A490D700846006800F0070059
:102E2000A84201D0012078E7207800F004000428AF
:102E300007D11448006820F4E050E16808431149C4
:102E40000860207800F00800082808D10D480068C4
:102E500020F46040216940EAC1000A49086000F09E
:102E60003FF808490968C1F30311074A515CC8409B
:102E70000649086006480068FFF79AFE00204CE704
:102E8000003C024008380240904100082800002021
:102E90002000002001480068704700002800002042
:102EA00000B5FFF7F7FF04490968C1F38221034A1F
:102EB000515CC84000BD000008380240A041000835
:102EC00000B5FFF7E7FF04490968C1F34231034A3F
:102ED000515CC84000BD000008380240A041000815
:102EE0002DE9F047002400250026A146254800686A
:102EF00000F00C0020B1042805D008283AD105E0E4
:102F0000DFF8849039E0DFF8849036E01D48001F38
:102F1000006800F03F041B48001F006800F48000B8
:102F200078B11A481749091F0968C1F38811A0FB35
:102F300001700146224600233846FDF7EBF90546AD
:102F40000EE011480F49091F0968C1F38811A0FB61
:102F500001700146224600233846FDF7DBF905469D
:102F60000848001F0068C0F30140401C4600B5FB44
:102F7000F6F902E0DFF8109000BF00BF4846BDE858
:102F8000F0870000083802400024F400001BB7005E
:102F9000F8B504460CB90120F8BD207800F0010016
:102FA000002874D0F948006800F00C0004280DD007
:102FB000F648006800F00C00082813D1F348001F01
:102FC000006800F48000B0F5800F0BD1EF4808389E
:102FD0000068C0F34040002859D06068002856D1EE
:102FE0000120D9E700BF6068B0F5803F08D1E7480D
:102FF0000838006840F48030E449083908601EE071
:103000006068B0F5A02F0DD1E0480838006840F4A2
:103010008020DE49083908600846006840F48030A6
:1030200008600CE0D9480838006820F48030D7499F
:10303000083908600846006820F48020086000BF56
:10304000606890B1FFF784FD054606E0FFF780FD5C
:10305000401B642801D903209EE7CC48083800684B
:10306000C0F340400028F1D011E0FFF771FD0546A4
:1030700006E0FFF76DFD401B642801D903208BE7B4
:10308000C24808380068C0F340400028F1D12078D9
:1030900000F0020002285FD1BC48006800F00C007C
:1030A00058B1BA48006800F00C0008281CD1B74895
:1030B000001F006800F48000B0B9B4480838006808
:1030C000C0F3400020B1E068012801D0012063E78F
:1030D000AE480838006820F0F800216940EAC100D5
:1030E000AA490839086037E0E06800B30120A84920
:1030F0000860FFF72DFD054606E0FFF729FD401BA0
:10310000022801D9032047E7A04808380068C0F327
:1031100040000028F1D09D480838006820F0F800F1
:10312000216940EAC10099490839086014E000208B
:1031300097490860FFF70CFD054606E0FFF708FD1C
:10314000401B022801D9032026E790480838006870
:10315000C0F340000028F1D1207800F008000828D2
:103160002CD16069A8B101208A490860FFF7F0FC02
:10317000054606E0FFF7ECFC401B022801D90320BE
:103180000AE782486C300068C0F340000028F1D0A4
:1031900014E000207F490860FFF7DAFC054606E0EE
:1031A000FFF7D6FC401B022801D90320F4E677483C
:1031B0006C300068C0F340000028F1D1207800F0A6
:1031C0000400042870D1002770483830006800F0EF
:1031D000805090B900BF002000906C4838300068E3
:1031E00040F080506949383108600846006800F0B6
:1031F0008050009000BF00BF01276748006800F4BE
:103200008070B0B96448006840F48070624908601A
:10321000FFF79EFC054606E0FFF79AFC401B0228DC
:1032200001D90320B8E65C48006800F480700028EB
:10323000F2D000BFA068012808D154486830006867
:1032400040F001005149683108601DE0A068052880
:103250000DD14E486830006840F004004B49683199
:1032600008600846006840F0010008600CE047482C
:103270006830006820F00100444968310860084661
:10328000006820F00400086000BFA068A8B1FFF744
:103290005FFC054609E0FFF75BFC401B41F288310B
:1032A000884202D9032077E626E038486830006873
:1032B000C0F340000028EED013E0FFF749FC0546BC
:1032C00008E0FFF745FC401B41F28831884201D9F4
:1032D000032061E62D4868300068C0F340000028F4
:1032E000EFD1012F07D129483830006820F08050F5
:1032F00026493831086000BFA069002845D023481E
:10330000006800F00C0008285DD0A069022845D1B3
:1033100000201F490866FFF71BFC054606E0FFF783
:1033200017FC401B022801D9032035E6174808384E
:103330000068C0F340600028F1D1D4E907010843D8
:10334000616A40EA81110122A06AC2EB500041EAA1
:1033500000412C20005D41EA00600C49091F086013
:1033600001200B490866FFF7F3FB054606E0FFF76F
:10337000EFFB401B022801D903200DE60348083863
:103380000068C0F340600028F1D049E008380240EE
:1033900000004742800E4742007000400020214953
:1033A0000866FFF7D5FB054606E0FFF7D1FB401B9B
:1033B000022801D90320EFE51B480068C0F34060F4
:1033C0000028F2D12CE0A069012800D1E4E51648DC
:1033D000001D0668A069012820D006F48001E0697C
:1033E00081421BD106F03F01206A814216D147F687
:1033F000C0703040616AB0EB811F0FD106F44031DC
:103400000122A06AC2EB5000B1EB004F06D106F0DA
:1034100070612C20005DB1EB006F01D00120BBE595
:103420000020B9E5000047420038024070B504466C
:103430002546681EB0F1807F01D301200FE0681E91
:103440004FF0E02148610F214FF0FF3000F00EFDFA
:1034500000204FF0E021886107200861002070BD46
:10346000704710B504460CB9012010BDA06900B129
:1034700000E000BF94F8410028B9002084F8400023
:10348000204600F029F8242084F841002068C06814
:1034900020F400502168C860204600F0AFFB20688F
:1034A000006920F49040216808612068406920F09C
:1034B0002A00216848612068C06840F400502168F3
:1034C000C86000206064202084F8410084F8420035
:1034D0000020606300BFC8E710B586B00446142121
:1034E00001A8FCF7A1FF2A49206888424DD100BFFE
:1034F000002000902748006840F01000254908602F
:103500000846006800F01000009000BF00BF00BF38
:10351000002000901F481438006840F002001D4948
:10352000143908600846006800F00200009000BFEF
:1035300000BF00BF002000900846006840F0010076
:1035400008600846006800F00100009000BF00BF5E
:10355000802001900220029000200390032004901C
:103560000720059001A90C48FFF7F8F94FF4007007
:103570000190022002900020039003200490072075
:10358000059001A90548FFF7E9F906B010BD000054
:103590000010014044380240000402400000024094
:1035A000F7B50446154694F8410020283ED101980D
:1035B00000B10DB90120FEBD01982062A584E5840B
:1035C00000206064212084F841001948A16BC86381
:1035D0001848A16B08641848A16BC8640020A16B4F
:1035E000086501AE23681A1D31682B46A06BFFF7F2
:1035F00058F930B110206064202084F84100012087
:10360000D9E76FF040002168086000BF00BF216863
:10361000143151E8001F41F080002168143141E865
:103620000002002AF3D100BF0020C4E70220C2E755
:10363000053B00085D3B0008B53A0008704770473D
:1036400000BFFEE710B50E480E4908600320486031
:1036500000210C488160C1604FF4102101614FF4DA
:10366000001141610021017641768176C1760177B2
:103670004177FEF7BFFE08B1FEF77DFB10BD0000ED
:10368000006400409401002010B50E480E49086007
:103690000320486000210C488160C1604FF4102174
:1036A00001614FF40011416100210176417681767C
:1036B000C17601774177FEF79DFE08B1FEF75BFB0F
:1036C00010BD000000680040BC01002008B500BF2C
:1036D000002000901D48006840F002001B4908606F
:1036E0000846006800F00200009000BF00BF00BF65
:1036F000002000900846006840F00100086008467D
:10370000006800F00100009000BF00BF00BF002073
:1037100000900846006840F008000860084600680D
:1037200000F00800009000BF00BF00BF0020009024
:103730000846006840F0800008600846006800F015
:103740008000009000BF00BF08BD0000303802407C
:1037500010B50B480B4908604FF4E1304860002178
:1037600008488160C16001610C21416100218161D3
:10377000C161FFF776FE08B1FEF7FDFA10BD00004B
:1037800000100140E401002000BFFEE700BFFEE79B
:10379000B0EE401A10B99FED790A704790ED100A0B
:1037A00080ED110A90ED0F0A80ED100AC0ED060AB7
:1037B00080ED071A30EEC10A80ED0F0A017800296A
:1037C00075D190ED010AD0ED0F1A20EE210A80ED9F
:1037D000090A90ED0A0AD0ED021A90ED0F2A01EEC7
:1037E000820A80ED0A0A90ED0D0A80ED0E0A90ED36
:1037F0000C0A80ED0D0A90ED0F0AD0ED101A30EE94
:10380000610A80ED0C0A90ED030AD0ED0C1A20EE4F
:10381000210A80ED0B0A90ED0A0AD0ED051AB4EEEC
:10382000E10AF1EE10FA04DD90ED050A80ED0A0AD6
:1038300010E090ED0A0AD0ED051AF1EE611AB4EE2F
:10384000E10AF1EE10FA05D290ED050AB1EE400A58
:1038500080ED0A0A90ED090AD0ED0A1A30EE210A2D
:10386000D0ED0B1A30EE210A80ED080A90ED080A1F
:10387000D0ED041AB4EEE10AF1EE10FA04DD90ED99
:10388000040A80ED080A76E090ED080AD0ED041AEB
:10389000F1EE611AB4EEE10AF1EE10FA6BD290ED9E
:1038A000040AB1EE400A80ED080A64E0FFE70178FF
:1038B000012960D190ED0F0AD0ED101A30EE610AA7
:1038C000D0ED011A20EE210A80ED090A90ED020ADE
:1038D000D0ED0F1A20EE210A80ED0A0A90ED0D0AB4
:1038E00080ED0E0A90ED0C0A80ED0D0A90ED0F0AA6
:1038F000D0ED101AB0EE002A02EE610AD0ED111AD6
:1039000030EE210A80ED0C0A90ED030AD0ED0C1A7E
:1039100020EE210A80ED0B0A90ED090AD0ED0A1A7B
:1039200030EE210AD0ED0B1A30EE210AD0ED081A44
:1039300030EE210A80ED080A90ED080AD0ED041A55
:10394000B4EEE10AF1EE10FA04DD90ED040A80ED28
:10395000080A10E090ED080AD0ED041AF1EE611AA1
:10396000B4EEE10AF1EE10FA05D290ED040AB1EEE0
:10397000400A80ED080A90ED080A0EE700000000FA
:1039800000B102B97047017092ED001A80ED011A82
:1039900092ED011A80ED021A92ED021A80ED031ADF
:1039A00080ED040AC0ED050A9FED0C1A80ED0E1A99
:1039B00080ED0D1A80ED0C1A9FED081A80ED081AA3
:1039C00080ED0B1A80ED0A1A80ED091A80ED111AAC
:1039D00080ED101A80ED0F1A00BFD3E70000000041
:1039E0007047704710B5FFF7B9F810BD00B593B038
:1039F000302107A8FCF718FD142102A8FCF714FDDC
:103A000000BF002001902448006840F08050224907
:103A100008600846006800F08050019000BF00BFB9
:103A200000BF002001901D48006840F480401B4901
:103A300008600846006800F48040019000BF00BFA5
:103A4000012007900004089002200D9041050E917E
:103A500006210F91A82110910221119104211291A8
:103A600007A8FFF795FA08B1FEF785F90F20029035
:103A700002200390002004904FF4A05005904FF4D2
:103A800080500690052102A8FFF742F908B1FEF721
:103A900072F913B000BD00004038024000700040D1
:103AA0000348006840F47000014908607047000056
:103AB00088ED00E070B506460025B46B20684069CB
:103AC000C0F3C01594F84100212805D125B100208C
:103AD000E084204600F07FF820684069C0F380153C
:103AE00094F84200222805D125B10020E085204627
:103AF00000F03BF8606C40F0100060642046FFF777
:103B0000AFFC70BD70B50546AC6B2868006800F46A
:103B10008070F8B90020E08400BF00BF2168143134
:103B200051E8001F21F080002168143141E80002B3
:103B3000002AF3D100BF00BF00BF21680C3151E85B
:103B4000001F41F0400021680C3141E80002002ACA
:103B5000F3D102E02046FFF771FD70BD70B5044659
:103B6000A56B2846FFF76BFD70BD00BF00BF026864
:103B70000C3252E8002F22F4907102680C3242E8B5
:103B80000013002BF3D100BF00BF00BF0268143246
:103B900052E8002F22F001010268143242E80013BB
:103BA000002BF3D100BF016B01290ED100BF00BF74
:103BB00002680C3252E8002F22F0100102680C3229
:103BC00042E80013002BF3D100BF202180F84210FF
:103BD00000210163704700BF00BF02680C3252E849
:103BE000002F22F0C00102680C3242E80013002BC3
:103BF000F3D100BF202180F8411070472DE9F84F24
:103C000004462068006920F44050E16808432168B8
:103C100008612169A068084361690843E1690843B4
:103C200000902068C06849F20C61884300990843FD
:103C30002168C8602068406920F44070A169084389
:103C40002168486176492068884203D07549206818
:103C5000884203D1FFF734F9814602E0FFF720F9EB
:103C60008146E069B0F5004F6CD102206168A0FB8D
:103C7000015003461920A9FB007001462A46384628
:103C8000FCF748FB6421B0FBF1F04FEA001A022078
:103C90006168A0FB01510B461920A9FB00712A465F
:103CA0003846FCF737FB834602206168A0FB0150D1
:103CB00003461920A9FB00712A463846FCF72AFB67
:103CC0006421B0FBF1F000EBC00101EB0010ABEBA5
:103CD0008000322101EBC0006421B0FBF1F000F064
:103CE000F8000AEB400A02206168A0FB015003467D
:103CF0001920A9FB007001462A463846FCF70AFB4A
:103D0000834602206168A0FB015003461920A9FBED
:103D100000712A463846FCF7FDFA6421B0FBF1F049
:103D200000EBC00101EB0010ABEB8000322101EB96
:103D3000C0006421B0FBF1F000F00700504421689E
:103D400088606AE004206168A0FB015003461920E6
:103D5000A9FB007001462A463846FCF7DBFA82468A
:103D600004206168A0FB015003461920A9FB0070E4
:103D700001462A463846FCF7CDFA6421B0FBF1F043
:103D800000EBC00101EB0010AAEB8000322101EB37
:103D900000106421B0FBF1F000F0F00A042061682B
:103DA000A0FB017003461920A9FB00513A462846A2
:103DB000FCF7B0FA6421B0FBF1F00AEB001A042022
:103DC0006168A0FB01510B461920A9FB00712A462E
:103DD0003846FCF79FFA834604206168A0FB015037
:103DE00003461920A9FB007001462A463846FCF715
:103DF00091FA6421B0FBF1F000EBC00101EB00107F
:103E0000ABEB8000322101EB00106421B0FBF1F03C
:103E100000F00F00504421688860BDE8F88F000072
:103E2000001001400014014000BFFEE703B40198F8
:103E30004100009850EAC12018BF04204A0D18BF65
:103E400040F0010040F2FF72B2EB515F08BF40F05A
:103E50000200012808BF052002B070470248006830
:103E6000C0F30220704700000CED00E010B5002800
:103E700004DB0A07130E054A135406E00A07140E62
:103E8000034A00F00F031B1FD45410BD00E400E0F0
:103E900018ED00E030380A2801D2012070470020D8
:103EA0007047000000B58BB00120099000200790FA
:103EB0000120089000200190029003900490069049
:103EC000059001A90C48FEF713F80B48FEF7B3FC68
:103ED00002210948FDF752FF0E200A90069001A921
:103EE0000648FEF705F80548FEF7A5FC0221034841
:103EF000FDF744FF0BB000BD94010020BC01002081
:103F0000014601F0030000EB8000024A02EB400092
:103F1000704700002C0200202DED028B82B04FF480
:103F2000FA74FEF727FEFFF761FDFFF7CFFBFFF7FF
:103F300089FBFFF7A9FBFFF70BFCDFED230A9FEDE1
:103F4000230A234A00212348FFF71AFDFFF7AAFF9F
:103F50000020FFF7D5FF2049086033E01E480068C5
:103F6000B0F9020000EE900AF8EEE00AB0EE600A46
:103F7000DFED1A0A1748FFF70BFC164991ED080A06
:103F8000BDEEC00A10EE101A08B200231A461946F8
:103F9000FDF7B2FE0220FEF7CDFC0E4890ED080AB8
:103FA00010EE101A084600F079F841EC180B0A4898
:103FB0000068B0F9020053EC182BCDE9004008A0CE
:103FC00000F018F8CAE7000000007A4400007A46C2
:103FD0000400002040000020880000200000FA4378
:103FE0004D79205049443A25662C25642C25640AD5
:103FF000000000000FB410B503A80B490860084684
:1040000002680A480299FCF7FDF909490880002076
:10401000054908600648028804490648FFF7C0FAC7
:1040200010BC5DF814FB000010000020940000207C
:1040300014000020E401002010B500290AD00878FF
:10404000002807D005487844FDF734FA002801D04D
:10405000002010BD0248784410BD00007E02000020
:104060007602000010B500290AD00878002807D091
:1040700005487844FDF71EFA002801D0002010BD45
:104080000248784410BD00006E0200006602000085
:104090000808A0F500114FEA3101704743004FEACC
:1040A000D30C4FEA3C0C43401FBF40070CF160515A
:1040B00013F0FE4F70471CF0006F03D100200CF08E
:1040C000004170470CF0004343EA507010B540EADD
:1040D000CC0000F00EF800BF000000924FEA000193
:1040E000FFF7D6BF4FF000414FF00000A1F50021CF
:1040F00070470EF1020E2EF0030E5EF8044B2442C0
:1041000004D44FEA4102B2F17F4F11D84FEA400385
:10411000B3F17F4F0CD80ED14FEAD07CB2F17F4F74
:104120000CEB4C0C0CF1020C08BF4CEBD17C04E006
:104130004FF0080C01E04FEAD17C0CEB4C0324FA61
:1041400003F404F00704B4F1040C06D20EEB840C63
:10415000BDE810404CF0010C6047DFE80CF00708A8
:1041600002024FF00040A0F5800010BD084642005A
:1041700018BFD2F1807288BF00F0004010BD4FF030
:104180004070E1EE100A7047FCF7A1BDFCF7D6BE07
:1041900000000000000000000102030406070809F7
:1041A0000000000001020304000000000000000005
:1041B000303132333435363738394142434445465D
:1041C0004030580030313233343536373839616257
:1041D0006364656640307800040000080000000059
:1041E0000000000200010000103031323334353657
:1041F0003738396162636465667870003031323314
:10420000343536373839414243444546585000002A
:1042100002400000000000A0000000000540000077
:10422000000000C8000000000C4000000000409C9E
:1042300000000000194000000020BCBE000000008B
:1042400034400000BFC91B8E00000004B5400000D0
:10425000504BCFD06607E2CF010000006C41000058
:104260003E8251AADFEEA73401000000D9420000CF
:10427000DCB5A0E23A301F97FFFFFFFFB445000016
:10428000FD25A0C8E9A3C14FFFFFFFFFFF3F0000CE
:104290000000008000000000FF3F000000000080E0
:1042A00000000000F0430008000000204000000073
:1042B000C40100083044000840000020C808000085
:1042C000E00100081C00000043000000F8FFFFFFB1
:1042D0000C0000000E0000000F0000002E00000087
:1042E0001001000043000000F8FFFFFF00404040C5
:1042F00040404040404041414141414040404040B9
:104300004040404040404040404040404005020264
:104310000202020202020202020202020220202023
:10432000202020202020200202020202020290907F
:10433000909090901010101010101010101010107D
:1043400010101010101010100202020202028888D1
:1043500088888888080808080808080808080808DD
:1043600008080808080808080202020240000000C5
:10437000000000000000000000000000000000003D
:10438000000000000000000000000000000000002D
:10439000000000000000000000000000000000001D
:1043A000000000000000000000000000000000000D
:1043B00000000000000000000000000000000000FD
:1043C00000000000000000000000000000000000ED
:1043D00000000000000000000000000000000000DD
:1043E00000000000000000000000000000000000CD
:1043F000000000000000803FCDCC4C3E000060403B
:1044000000000000000000000000000000000000AC
:1044100010000000010000000024F4000000000073
:10442000000000000000000000000000000000008C
:040000050800018965
:00000001FF
