:020000040800F2
:1000000018080020290200082B1B000851190008BD
:10001000291B00088B060008651F0008000000006F
:10002000000000000000000000000000591C000853
:1000300021070008000000002D1B00085B1C0008C1
:10004000430200084302000843020008430200087C
:10005000430200084302000843020008430200086C
:100060004302000843020008230700084302000877
:10007000430200084302000843020008430200084C
:10008000430200084302000843020008430200083C
:100090004302000843020008430200082907000841
:1000A00043020008051D000843020008430200083F
:1000B000430200084302000843020008430200080C
:1000C00043020008430200084302000843020008FC
:1000D00043020008430200084302000843020008EC
:1000E00043020008430200084302000843020008DC
:1000F00043020008430200084302000843020008CC
:1001000043020008430200084302000843020008BB
:1001100043020008430200084302000843020008AB
:1001200043020008430200088D06000899060008F3
:10013000430200084302000843020008430200088B
:10014000430200084302000843020008430200087B
:10015000430200084302000843020008430200086B
:10016000430200084302000843020008430200085B
:100170004302000843020008430200080000000098
:10018000430200084302000800F002F800F03CF8C7
:100190000AA090E8000C82448344AAF10107DA45E2
:1001A00001D100F031F8AFF2090EBAE80F0013F0F8
:1001B000010F18BFFB1A43F0010318471820000075
:1001C00038200000103A24BF78C878C1FAD8520706
:1001D00024BF30C830C144BF04680C6070470000C1
:1001E0000023002400250026103A28BF78C1FBD840
:1001F000520728BF30C148BF0B6070471FB501F0E0
:10020000D7FF1FBD10B510BD00F0CFF81146FFF7A6
:10021000F5FF01F0AFFF00F0EDF803B4FFF7F2FFD8
:1002200003BC00F0F5F80000094880470948004782
:10023000FEE7FEE7FEE7FEE7FEE7FEE7FEE7FEE796
:10024000FEE7FEE704480549054A064B70470000F3
:10025000F51C000889010008180200201808002079
:10026000180400201804002053EA020C00F06980F2
:100270002DE9F04B4FF00006002B1FBFB3FA83F5BA
:1002800003FA05F424FA05F65E4012BF1643B2FAEB
:1002900082F502FA05F4C5F120051EBF22FA05FC1D
:1002A00044EA0C04203556EA044C4FEA144418BFC3
:1002B000641C4FF000084FF00009904271EB030CF2
:1002C00039D3002919BFB1FA81F701FA07F6B0FA5C
:1002D00080F700FA07F6C7F120071EBF20FA07FCD7
:1002E00046EA0C062037B6FBF4FCA7EB0507103FE7
:1002F00007F01F0BCBF120060CFA0BFB2CFA06F6CD
:1003000044BFB3460026202FA4BF5E464FF0000B2B
:100310005BEA060C08BF4FF0010B19EB0B09ABFBB6
:10032000027C48EB0608C01B06FB02CC0BFB03CC8F
:1003300071EB0C01C1E70B46024641464846BDE859
:10034000F08B13B54FF000004FF00001AFF30080C9
:10035000BDE81C4070474FF0000200B513469446BC
:100360009646203922BFA0E80C50A0E80C50B1F10D
:100370002001BFF4F7AF090728BFA0E80C5048BF21
:100380000CC05DF804EB890028BF40F8042B08BFBF
:10039000704748BF20F8022B11F0804F18BF00F8BB
:1003A000012B7047704770477047754600F02CF876
:1003B000AE4605006946534620F00700854618B052
:1003C00020B5FFF73FFFBDE820404FF000064FF09B
:1003D00000074FF000084FF0000B21F00701AC467A
:1003E000ACE8C009ACE8C009ACE8C009ACE8C00999
:1003F0008D46704710B50446AFF300802046BDE837
:100400001040FFF70ABF000000487047B801002005
:1004100001491820ABBEFEE726000200704700002D
:1004200001221021014800F0D7BB0000000002406B
:1004300000221021014800F0CFBB00000000024064
:100440007047000001221146014800F0C5BB0000C2
:100450000004024000220121014800F0BDBB000061
:1004600000040240704730B504464FF47A7502E04C
:10047000284600F004F8641EA4B2F9D230BD70B56D
:100480004FF0E02400226569A8214843A169A369CF
:100490008B42FCD002D2A1EB030102E0A5EB0306E4
:1004A00031440A4419468242F1D370BD10B5FFF7BA
:1004B000C7FFFFF7D7FF01F067FD044601F0ECFD31
:1004C000204310BD2DE9FC410746002016460D468D
:1004D00000900190FFF7ACFF922000F0BDF80622DB
:1004E0006946122000F09AF8FFF79AFF9DF8010084
:1004F0009DF80010000200B2084300EE100A464CBE
:10050000B8EEC00AD4ED000A20EE200A85ED000AFC
:100510009DF803009DF80210000200B2084300EEAF
:10052000100AD4ED000AB8EEC00A20EE200A85EDCC
:10053000010A9DF805009DF80410000200B208436E
:1005400000EE100AB8EEC00A20EE200A85ED020A7D
:10055000FFF780FF08226946002000F05FF8FFF7F0
:1005600071FF9DF800000F2830D19DF803009DF821
:100570000210000200B2084300EE100AD4ED010A96
:10058000B8EEC00A20EE200A87ED000A9DF80500AB
:100590009DF80410000200B2084300EE100AD4EDEA
:1005A000010AB8EEC00A20EE200A87ED010A9DF884
:1005B00007009DF80610000200B2084300EE100A82
:1005C000B8EEC00A20EE200A87ED020AFFF730FFDE
:1005D000A22000F041F802226946222000F01EF815
:1005E000FFF71EFF9DF800009DF80110C00040EAD3
:1005F0005110B0F5806F01DBA0F5006000EE100A2D
:10060000B4EE001AF8EEC00AB3EE070A00EE810A53
:1006100086ED000ABDE8FC811400002070B5144688
:100620000D4640F0800000F017F806E0552000F07D
:1006300013F8641E05F8010BE4B2002CF6D170BD6E
:1006400010B50C4640F0800000F006F8552000F090
:1006500003F8207010BD000001B582B04FF47A702D
:100660000090012301AA02A9024800F0BBFE9DF8F8
:1006700004000EBD5800002010B50C46FFF7ECFF3B
:100680002046BDE81040FFF7E7BFFEE7014800F055
:1006900051B80000B0000020014800F04BB8000045
:1006A0001001002001681823CAB2103AB2FBF3F21D
:1006B000054B6FF30901032A9B5CC36500D9091D33
:1006C0008165084670470000BA21000810B5014650
:1006D00000208B698A6A4FF0C07453B1B3F5005F94
:1006E00015D072B1012A0CD0022A0AD0032A09D1EE
:1006F00004E01AB1012A06D0022A03D1C96AC9014D
:1007000000D5012010BDC96AA142FAD010BD002A4F
:10071000F7D0012AF2D0022AF3D0032AF3D010BD79
:100720007047102000F054B9202000F051B972B683
:10073000FEE700002DE9F84304464FF00009CDF82C
:10074000009063484FF41651A56D0068B0FBF1F7B7
:100750002E6894F85C10082000FA01F131420FD0A5
:1007600021680A6852070BD50A6822F004020A6061
:1007700094F85C108840A860606D40F001006065EE
:1007800094F85C104FF0010808FA01F0304208D0EC
:1007900021684969090604D5A860606D40F002002F
:1007A000606594F85C1004208840304208D02168CD
:1007B0000968890704D5A860606D40F00400606591
:1007C00094F85C1010208840304218D021680968E5
:1007D000090714D5A86020680168490304D500689A
:1007E000000308D5A16C07E00168C90503D40168BE
:1007F00021F008010160216C09B12046884794F876
:100800005C1020208840304231D021680968C90638
:100810002DD5A86094F8350005282068016806D019
:10082000490347D5006800031DD4616C1CE021F02A
:10083000160101602068416921F080014161206C4E
:1008400008B9A06C20B12068016821F0080101609E
:1008500094F85C103F208840A86084F8358084F8C4
:100860003490216D1FE0E16B09B120468847606D2F
:1008700000282BD0606DC00714D0052084F8350007
:100880002068016821F0010101600098401C00907F
:10089000B84203D820680068C007F6D184F83580D4
:1008A00084F83490E16C002910D001B02046BDE8F6
:1008B000F04308470168C905D5D4016821F010014B
:1008C000016084F8358084F83490CCE7BDE8F88383
:1008D000100000202DE9F041044600F083F906469F
:1008E0005CB1022084F83500002584F8345020687B
:1008F000016821F0010101600DE00120BDE8F081F7
:1009000000F070F9801B052805D9202060650320C0
:1009100084F83500F2E720680068C007F0D122684B
:10092000116820480140D4E901031843D4E9033693
:100930003343184363691843A3691843E3691843B1
:10094000236A18430843616A042903D1D4E90B13CD
:1009500019430843106020684069666A20F0070167
:1009600030460E43012704280CD1A06A0643E06AF2
:1009700040B12046FFF7AAFE20B14020606584F810
:100980003570BAE7206846612046FFF78BFE94F881
:100990005C203F2191408160656584F835700020BE
:1009A000ACE700003F8010F070B5044600F01AF983
:1009B0000546601C02D004480078044400F012F997
:1009C000401BA042FAD370BD040000207047000015
:1009D000044910B50A68024202D00860FFF7F6FF2A
:1009E00010BD0000143C01402DE9F84FDFF8BCA118
:1009F0000022012503264FF00F090AF1040BAAF18A
:100A0000040E00BF0B6805FA02F42340A34270D124
:100A10000F7907F00307012F01D0022F16D1876845
:100A20004FEA420806FA08FC27EA0C07D1F80CC086
:100A30000CFA08FC4CEA070CC0F808C04768A7434A
:100A40000C79C4F3001494403C4344600C79E443B3
:100A5000A4070AD0C4684FEA420C06FA0CF7BC435C
:100A60008F6807FA0CF72743C7600C7904F003047A
:100A7000022C12D1D40800EB840CDCF8204057077C
:100A8000FF0E09FA07F824EA0804D1F8108008FAE2
:100A900007F848EA0408CCF8208004684FEA420CC2
:100AA00006FA0CF7BC430F7907F0030707FA0CF7B7
:100AB000274307604C6814F4403F70D03C4C2768D3
:100AC00047F480472760246822F0030704F4804439
:100AD0000094384C07EB040CDCF8084897074FEA01
:100AE000177809FA08F7BC43334FB84202D1002700
:100AF00024E054E0314FB84201D101271EE0304FCD
:100B0000B84201D1022719E02E4FB84201D1032784
:100B100014E02D4FB84201D104270FE02B4FB8420B
:100B200001D105270AE02A4FB84201D1062705E086
:100B3000284FB84201D1072700E0082707FA08F735
:100B40002743CCF80878DAF800405746D1F804C0BB
:100B50009C435FEACC2C00D51C433C60DBF8004092
:100B60005F46D1F804C09C435FEA8C2C00D51C433F
:100B70003C60DEF800407746D1F804C09C435FEA51
:100B80008C3C00D51C433C60084F083F3C68D1F8C2
:100B900004C09C435FEACC3C00D51C433C60521C23
:100BA000102AFFF42FAFBDE8F88F0000083C014089
:100BB000443802400030014000000240000402407E
:100BC00000080240000C02400010024000140240E5
:100BD00000180240001C02400AB1816170470904FC
:100BE000FBE7000001488068704700000400002017
:100BF0000248816802781144816070470400002037
:100C00000B4810B5016841F400710160016841F4BE
:100C100080610160016841F480710160032000F08F
:100C20006FF80F2000F006F800F024F8002010BD47
:100C3000003C024070B50D4D04464FF47A7128789F
:100C4000B1FBF0F00A490968B1FBF0F000F0C2FC1A
:100C500048B9102C07D200222146501E00F030F86F
:100C600000206C6070BD012070BD000004000020F9
:100C7000100000200A4808B5016841F48041016075
:100C8000006800F4804000900548001F016841F0B2
:100C900080510160006800F08050009008BD0000A5
:100CA00044380240002809DB00F01F020121914076
:100CB0004009800000F1E020C0F8001170470000FA
:100CC000F0B40E4B1B680C46C3F30223C3F10705B7
:100CD000042D00D90425191D072901D2002300E0A5
:100CE000DB1E012606FA05F1491E214099409E406F
:100CF000761E16403143F0BC01F035B90CED00E032
:100D0000064900F0070208684FF6FF03184040EA62
:100D10000220034A10430860704700000CED00E019
:100D20000000FA052DE9F0470E46050065D0DFF812
:100D30001481D8F80000F7B200F00700B04207D2E3
:100D400088F80070D8F8000000F00700B04254D1D5
:100D500028683D4C810712D5400703D5206840F430
:100D6000E05020602878000703D5206840F46040F8
:100D700020602068A96820F0F000084320602878EF
:100D8000C0072DD0304968680839012812D00228E0
:100D900013D0032811D00968890700292DDA2168AA
:100DA00021F0030101432160FFF71CFF814641F25E
:100DB000883A0EE009688903EFE709688901ECE7E2
:100DC000FFF710FFA0EB0901514502D90320BDE850
:100DD000F0872068696800F00C00B0EB810FEFD15C
:100DE000D8F80010404601F00701B14207D907705A
:100DF000006800F00700B04201D00120E7E7287842
:100E0000400705D52068E96820F4E05008432060D9
:100E10002878000706D52068296920F4604040EA58
:100E2000C100206000F018F82168084AC1F30311DE
:100E3000515CC8400649086006480068FFF7FAFEA2
:100E40000020C4E7003C024008380240C2210008EC
:100E50001000002008000020154810B5006810F0B0
:100E60000C02144813D01449042A0FD0082A0ED1BA
:100E70000F4C241F2268236802F03F025B0207D553
:100E80002068C0F38810A0FB010106E0084610BDF1
:100E90002168C1F38811A1FB00010023FFF7E4F9E9
:100EA0002168C1F30141491C4900B0FBF1F010BDBC
:100EB000083802400024F40040787D012DE9F84F05
:100EC00004006ED02078DFF84C93C007A9F1040528
:100ED0004AD009F104000168C1F38101012908D059
:100EE0000068C0F3810002280AD1D9F8000040024E
:100EF00006D52868800337D560680028E1D033E044
:100F00006068B0F5803F10D0B0F5A02F286810D0F1
:100F100020F480302860286820F4802028606068F1
:100F2000A8B1FFF75FFE06460DE0286840F4803068
:100F3000F4E740F480202860F7E700BFFFF752FE97
:100F4000801B642873D828688003F7D50CE0FFF76E
:100F500049FE064605E000BFFFF744FE801B6428FB
:100F6000F0D828688003F7D42078DFF8AC828007B7
:100F70004FF0000A3ED5A748001D016811F00C0F84
:100F800008D00068C0F3810002280BD1D9F8000016
:100F9000400207D42868800716D5E068012800D1F0
:100FA00012E033E1E068B8B10120C8F80000FFF7B3
:100FB00019FE064605E000BFFFF714FE801B02285D
:100FC000C0D828688007F7D52868216920F0F80084
:100FD00040EAC10028600DE0C8F800A0FFF702FE5B
:100FE000064604E0FFF7FEFD801B02281FD8286894
:100FF0008007F7D42078000722D5864F874861699B
:10100000703771B101210160FFF7ECFD064604E085
:10101000FFF7E8FD801B022809D838688007F7D55C
:101020000EE0C0F800A0FFF7DDFD064605E082E017
:10103000FFF7D8FD801B02287DD838688007F7D4D9
:101040002078400768D5DFF8CCB100270BF13C0BC6
:10105000DBF80000C0000BD4DBF8001041F0805139
:10106000CBF80010DBF80000012700F08050009062
:101070006B4E3068C00510D4306840F4807030602A
:10108000FFF7B0FD009005E0FFF7ACFD0099401AB6
:10109000022850D83068C005F6D55E4EA0686C3680
:1010A00001280FD00528306810D020F001003060F2
:1010B000306820F004003060A068B8B1FFF792FDFE
:1010C00000900FE0306840F00100F4E740F00400C9
:1010D0003060F7E7FFF786FD0099411A41F288304A
:1010E000814266D830688007F4D50EE0FFF77AFDBC
:1010F000009007E0FFF776FD0099411A41F2883031
:10110000814256D830688007F4D42FB1DBF8001044
:1011100021F08051CBF80010A069C8B33D49091DEA
:101120000968C1F3810102294AD00228504607D03C
:10113000C8F8600000E03CE0FFF754FD04463BE0E7
:101140004746C8F86000FFF74DFD064605E000BFC2
:10115000FFF748FD801B02282BD828688001F7D4B0
:10116000D4E907010843A16A2E4A490802EB01416C
:10117000626A41EA8211084394F82C1040EA016146
:10118000C9F8001001203866FFF72CFD044606E080
:101190003EE000BFFFF726FD001B022809D82868A3
:1011A0008001F7D534E000BFFFF71CFD001B0228CB
:1011B00002D90320BDE8F88F28688001F4D427E025
:1011C0000128F7D0D9F80000E26900F480019142CB
:1011D0001CD1226A00F03F01914217D147F6C0713D
:1011E000626A0140B1EB821F10D1A26A4FF0FF3357
:1011F00000F4403103EB5202B1EB024F06D194F8F8
:101200002C1000F07060B0EB016F01D00120D1E72D
:101210000020CFE70438024000004742800E4742DA
:10122000007000400000FFFF70B5040009D0606A44
:10123000002540B125616561A56294F8510040B177
:101240000CE0012070BD6068B0F5827FF4D0E561EC
:10125000F2E784F85050204600F044F8022084F869
:1012600051002068016821F040010160A0882189B7
:1012700000F4827001F404410843A18901F4006183
:101280000843217C01F002010843217D01F00101A6
:101290000843218B01F400710843217F01F03801DC
:1012A000084394F8201001F080010843218D01F4D7
:1012B0000051084321680860A069042101EA104038
:1012C00094F8241001F01001084321684860206858
:1012D000C16921F40061C1616565012084F8510094
:1012E000002070BD2DE9F04186B006461421684605
:1012F000FFF731F835493068884264D1344800241A
:10130000016841F480510160006800F4805005904C
:101310002F481438016841F002010160016801F0B2
:1013200002010591016841F0010101600068022598
:1013300000F0010005901820CDE9000502AA03275E
:101340004FF0050882E8900169462248FFF74CFB00
:101350008020CDE9000502AA694682E890011E4876
:10136000FFF742FB1E4D1D487F062860C5E901744A
:101370004FF48068C5E903486C617812AC61C5E937
:10138000074028466C62FFF7A5FA08B1FFF7CFF9CE
:10139000F564AE63124D114860351830E5E8020778
:1013A0004020A5E81101C00245F81449AC61C5E927
:1013B00007400B486C626030FFF78CFA08B1FFF70A
:1013C000B6F9B564AE6306B0BDE8F0810030014007
:1013D00044380240000402400000024040640240E1
:1013E000B00000202DE9FF4F81B01D469346044612
:1013F0004FF001090E9EFFF7F5FB074694F85100E8
:101400006168012806D0B1F5827F3CD1A168C9BBD3
:10141000042838D10298002871D0BBF1000FFBD00E
:10142000002DF9D094F8500001282CD04FF0010A7B
:1014300084F850A094F85100042802D0052084F8C4
:1014400051004FF00008C4F85480C4F838B0E58764
:10145000A58702992163E586A586C4F84080C4F873
:10146000448020680168490603D4016841F04001C6
:101470000160E068B0F5006F606808D0F0B3012D3E
:1014800049D081E0FFE7022005B0BDE8F08F08B148
:10149000012D39D1206B21680088C860206B801C29
:1014A0002063E08E401EE0862EE020688168890778
:1014B0000FD5E18E69B1B9F1010F0AD1216B09880D
:1014C000C160206B801C2063E08E401EE0864FF0E0
:1014D000000920688168C9070CD0E18F51B1C0684C
:1014E000A16B0880A06B801CA063E08F401EE0878A
:1014F0004FF00109FFF776FBC01B01E00BE067E04E
:10150000B04201D3701C50D1E08E0028CDD1E08FC5
:101510000028CAD13EE0206B216800780873206B58
:10152000401C2063E08E401EE0862DE0206881682C
:1015300089070FD5E18E69B1B9F1010F0AD1216B8D
:1015400009780173206B401C2063E08E401EE0860A
:101550004FF0000920688168C9070CD0E18F51B1B4
:10156000C068A16B0870A06B401CA063E08F401E98
:10157000E0874FF00109FFF735FBC01BB04202D3F3
:10158000701C01D011E086B1E08E0028CED1E08F32
:101590000028CBD13A463146204600F0C9FA50B176
:1015A0002020606584F8508012E084F851A084F80F
:1015B0005080032068E7A06818B92068C168806877
:1015C000009084F851A084F85080606D0028F1D01C
:1015D000012059E710B5401EB0F1807F01D30120F2
:1015E00010BD4FF0E02460610F21601700F0BBFCDC
:1015F0000020A06107202061002010BD70477047C7
:1016000010B5040003D094F83D0010B107E00120AC
:1016100010BD002084F83C00204600F01FF8022096
:1016200084F83D00211D206800F072FB012084F841
:10163000460084F83E0084F83F0084F8400084F8B7
:10164000410084F8420084F8430084F8440084F8A0
:10165000450084F83D00002010BD000008B500687A
:101660000B49884212D10B48016841F400310160F6
:101670000068002200F40030009011461920FFF7A6
:101680001FFBBDE808401920FFF70CBB08BD000098
:10169000004401404438024070472DE9F0410446BF
:1016A0000068C66805694FF00007A90713D5B107A0
:1016B00011D5F91E0161012020772068806980071B
:1016C000204602D0FFF7E8FF04E000F0A9F820462A
:1016D00000F03BF92777680716D5700714D5216805
:1016E0006FF004000861022020772068806910F400
:1016F000407F204602D0FFF7CFFF04E000F090F8D3
:10170000204600F022F92777280715D5300713D592
:1017100021686FF008000861042020772068C06904
:101720008007204602D0FFF7B7FF04E000F078F80A
:10173000204600F00AF92777E80616D5F00614D5FA
:1017400021686FF010000861082020772068C069C8
:1017500010F4407F204602D0FFF79EFF04E000F027
:101760005FF8204600F0F1F82777E80708D0F00787
:1017700006D021686FF001000861204600F0E6F80D
:10178000280608D5300606D521686FF0800008616C
:101790002046FFF733FF680608D5700606D5216896
:1017A0006FF040000861204600F0D1F8A8060AD585
:1017B000B00608D521686FF0200008612046BDE81A
:1017C000F041FFF71CBFBDE8F081000010B586B006
:1017D000044614216846FEF7BEFD0E492068884283
:1017E00015D10D48016841F0200101600068012118
:1017F00000F020000590402000900220CDE901017A
:1018000003900320049069460448FFF7EDF806B002
:1018100010BD000000440140303802400014024076
:10182000704770B5044690F83C0000260D4601282C
:101830000FD0012084F83C006AB1042A1DD0082A88
:101840002FD00C2A3FD00126002084F83C003046DF
:1018500070BD022070BD206800F0C2FA2068816966
:1018600041F0080181612068816921F004018161F2
:10187000206881692A69114311E0206800F0E0FACC
:101880002068816941F4006181612068816921F4E7
:1018900080618161206881692A6941EA0221816150
:1018A000D2E7206800F002FB2068C16941F008011E
:1018B000C1612068C16921F00401C1612068C1696A
:1018C0002A69114311E0206800F024FB2068C169F7
:1018D00041F40061C1612068C16921F48061C16186
:1018E0002068C1692A6941EA0221C161ACE710B5EB
:1018F000040003D094F83D0010B107E0012010BDB2
:10190000002084F83C00204600F01EF8022084F8F5
:101910003D00211D206800F0FBF9012084F84600FD
:1019200084F83E0084F83F0084F8400084F84100C9
:1019300084F8420084F8430084F8440084F84500A9
:1019400084F83D00002010BD704770477047704715
:10195000FEE700000D4808B5016841F48001016010
:101960000068002200F48000009011463A20FFF742
:10197000A7F93A20FFF796F9002211463B20FFF71E
:101980009FF9BDE808403B20FFF78CB93038024092
:101990002DE9F04186B014216846FEF7DCFC33489F
:1019A0004FF00008016841F002010160016801F098
:1019B00002010591016841F001010160016801F037
:1019C00001010591016841F004010160016801F025
:1019D00004010591016841F080010160016801F096
:1019E00080010591016841F0200101600068204EEE
:1019F00000F020000590012210213046FFF7ECF89E
:101A00001C4F012211463846FFF7E6F8012410204A
:101A1000CDE90004022569463046CDE90245FEF7CE
:101A2000E3FF302000904FF48810CDE901086946AB
:101A30001148FEF7D9FF0094694638460194CDE974
:101A40000245FEF7D1FF002211460A20FFF738F9C0
:101A50000A20FFF727F9002211461720FFF730F977
:101A60001720FFF71FF906B0BDE8F08130380240BB
:101A7000000002400004024000080240104810B577
:101A80000E4901604FF482714160002102228160A1
:101A9000C0E9031201224261520282613822C0E988
:101AA0000721416281620A21C162FFF7BDFB002864
:101AB00003D0BDE81040FEF73ABE10BD0030014033
:101AC0005800002010B588B01C216846FEF743FC82
:101AD000144813490024C0E9001441F28731C0E9D9
:101AE000024104618461FFF78BFD08B1FEF71FFE20
:101AF0000C48FFF7FCFE08B1FEF719FE6020CDE9A7
:101B0000000402940022694606480494FFF789FE07
:101B100008B1FEF70CFE0348FFF758FE08B010BDF1
:101B20000044014070010020FEE7FEE7704700001E
:101B3000F8B515460E460B460092044601220221D6
:101B400000F02CF8A0B9134813490068B0FBF1F07D
:101B50004FF47A71484300906068B0F5827F0DD1F0
:101B60003346002280212046009500F017F870B11E
:101B7000606D40F0200060650320F8BD009830B132
:101B8000401E009020688068C0430006F6D5002003
:101B9000F8BD00001000002000366E012DE9F8436A
:101BA0001E46914688460446089DFFF71BF8401BD9
:101BB000351AFFF717F8074626480068C0F3CB3000
:101BC00068430AE0701C09D0FFF70CF8C01BA8425C
:101BD0000FD275B10098B8B3401E0090206881689C
:101BE00038EA010033D000214945EBD10020BDE89F
:101BF000F8832068416821F0E00141606068B0F539
:101C0000827F0BD1A068B0F5004F02D0B0F5806F95
:101C100004D12068016821F040010160A06AB0F59C
:101C2000005F09D12068016821F40051016020683B
:101C3000016841F400510160012084F85100002046
:101C400084F850000320D2E7FFE70025C6E7012112
:101C5000CAE70000100000207047FEF7C9BF00006F
:101C600030B593B030216846FEF775FB14210CA8FF
:101C7000FEF771FB1D480025016841F080510160AD
:101C8000006800F0805011901948016841F48041CB
:101C900001600068022400F480401190012003904C
:101CA00010200490009406940820CDE90750A82045
:101CB000CDE9090404200B906846FFF7FFF808B14E
:101CC00072B6FEE70CA90F2081E831004FF4A05056
:101CD0000F904FF48050109005210CA8FFF722F8C8
:101CE000002801D072B6FEE713B030BD4038024084
:101CF000007000400248016841F4700101607047C3
:101D000088ED00E00148FFF7C8BC0000700100202A
:101D1000F0B50268274B284D284E294F294C4FF02B
:101D2000804C984209D0604507D0A84205D0B04207
:101D300003D0B84201D0A04204D122F0700E4A680C
:101D400042EA0E0298421BD0604519D0A84217D033
:101D5000B04215D0B84213D0A04211D01A4DA842BB
:101D60000ED01A4DA8420BD0194DA84208D0194DDB
:101D7000A84205D0184DA84202D0184DA84203D160
:101D800022F44075CA682A434D6922F080022A4332
:101D90008D68C5620D688562984201D0A04201D16C
:101DA00009690163016841F0040101600121416199
:101DB0000260F0BD00000140000400400008004047
:101DC000000C00400004014000400140004401407C
:101DD0000048014000180040001C00400020004066
:101DE000F0B5036A026A22F0010202624268846965
:101DF000124E24F073050C682C4323F002058B6807
:101E00002B430D4DA84201D0B04205D123F0080765
:101E1000CB683B4323F00403A84201D0B04205D174
:101E20004D6922F4407215438A692A4342608461F5
:101E3000496841630362F0BD0000014000040140B5
:101E4000F0B5026A036A23F01003036243688469F1
:101E50000D6824F4E64444EA05248D6822F020024B
:101E600042EA05120F4D104EA84201D0B04206D1F1
:101E7000CF6822F0800242EA071222F04002A84214
:101E800001D0B04207D14D6923F4406343EA850392
:101E90008D6943EA85034360846149688163026216
:101EA000F0BD00000000014000040140F0B5026AEE
:101EB000036A23F4807303624368C46922F40072E6
:101EC00024F073050C68124E2C438D6842EA0522FB
:101ED0000E4DA84201D0B04206D1CF6822F4006274
:101EE00042EA072222F48062A84201D0B04207D120
:101EF0004D6923F4405343EA05138D6943EA051302
:101F00004360C4614968C1630262F0BD00000140E2
:101F10000004014030B5046A026A22F48052026271
:101F20004268C3690D6823F4E64343EA05238D68DC
:101F300024F4005444EA0534084DA84202D0084D68
:101F4000A84204D14D6922F4804242EA85124260DF
:101F5000C36149680164046230BD000000000140B3
:101F600000040140FEE70907090E002804DB00F128
:101F7000E02080F80014704700F00F0000F1E0202E
:101F800080F8141D704700002DE9F0410024FEF791
:101F90004FFA8020FEF760FB5520FEF75DFB5520D1
:101FA000FEF75AFBFEF73CFA9620FEF768FAFEF7BA
:101FB0003FFA8020FEF750FB5520FEF74DFB5520E1
:101FC000FEF74AFBFEF72CFA9620FEF758FAFEF7CA
:101FD0002FFAB6217E20FEF74FFBFEF721FA5020A4
:101FE000FEF741FAFEF724FA8020FEF735FB552074
:101FF000FEF732FB5520FEF72FFBFEF711FA962075
:10200000FEF73DFAFEF714FA8020FEF725FB552077
:10201000FEF722FB5520FEF71FFB0546FEF700FAF0
:102020009620FEF72CFA1E2D02D0FF20BDE8F0818D
:10203000184D00BFFEF7FCF904EB44067719A85DC4
:102040007978FEF719FBFEF7EBF99620FEF717FA01
:10205000FEF7EEF9A85D40F08000FEF7FDFA55208E
:10206000FEF7FAFA5520FEF7F7FA0646FEF7D8F91A
:102070009620FEF704FA7878B04204D004EB4400CE
:1020800028448078D2E7641CE4B2062CD2D3002026
:10209000CCE700001C000020F8B500248DF80040BB
:1020A000FEF7D8F969460020FEF7CAFAFEF7CAF92A
:1020B0009620FEF7E4F9FEF7CDF969460020FEF719
:1020C000BFFAFEF7BFF99620FEF7D9F9FEF7C2F97D
:1020D000B6211420FEF7D0FAFEF7B4F95020FEF72F
:1020E000C2F9FEF7B7F969460020FEF7A9FAFEF734
:1020F000A9F99620FEF7C3F9FEF7ACF9694600206E
:10210000FEF79EFAFEF79EF99620FEF7B8F99DF8C5
:1021100000000F2801D0FF20F8BD154DFEF79AF9F9
:1021200004EB44067719A85D7978FEF7A5FAFEF767
:1021300089F99620FEF7A3F9FEF78CF9A85D6946A8
:10214000FEF77EFAFEF77EF99620FEF798F978788A
:102150009DF80010884204D004EB440028448078A5
:10216000F8BD641CE4B2062CD8D30020F8BD0000F2
:102170002E000020FEF744FDFFF772FDFFF708FC7C
:10218000FFF7E8FBFFF77AFCFFF79CFCFEF78EF900
:102190000028FBD10549044AA1F10C00FEF792F991
:1021A0000A20FEF701FCF5E7000000204C000020AB
:1021B0004FF04070E1EE100A70470006101600065E
:1021C00010160000000000000000010203040607D2
:1021D00008090000F4210008000000204000000071
:1021E000C40100083422000840000020D807000085
:1021F000E0010008000000000100000010000000E5
:10220000000000000024F400E7416B3A58A08B3A2C
:102210007D04017C000240AB0341000553080658D1
:1022200004070F000810820911000A15800B160020
:042230000C18010D78
:040000050800018965
:00000001FF
